{
  "_format": "hh-sol-artifact-1",
  "contractName": "StartBidAuction",
  "sourceName": "contracts/StartBidAuction.sol",
  "abi": [
    {
      "inputs": [],
      "stateMutability": "nonpayable",
      "type": "constructor"
    },
    {
      "anonymous": false,
      "inputs": [
        {
          "indexed": true,
          "internalType": "uint256",
          "name": "auctionId",
          "type": "uint256"
        }
      ],
      "name": "AuctionCanceled",
      "type": "event"
    },
    {
      "anonymous": false,
      "inputs": [
        {
          "indexed": true,
          "internalType": "uint256",
          "name": "auctionId",
          "type": "uint256"
        },
        {
          "indexed": true,
          "internalType": "address",
          "name": "seller",
          "type": "address"
        },
        {
          "indexed": false,
          "internalType": "string",
          "name": "ipfsCID",
          "type": "string"
        },
        {
          "indexed": false,
          "internalType": "uint256",
          "name": "reservePrice",
          "type": "uint256"
        },
        {
          "indexed": false,
          "internalType": "uint256",
          "name": "startTime",
          "type": "uint256"
        },
        {
          "indexed": false,
          "internalType": "uint256",
          "name": "endTime",
          "type": "uint256"
        }
      ],
      "name": "AuctionCreated",
      "type": "event"
    },
    {
      "anonymous": false,
      "inputs": [
        {
          "indexed": true,
          "internalType": "uint256",
          "name": "auctionId",
          "type": "uint256"
        },
        {
          "indexed": true,
          "internalType": "address",
          "name": "winner",
          "type": "address"
        },
        {
          "indexed": false,
          "internalType": "uint256",
          "name": "amount",
          "type": "uint256"
        }
      ],
      "name": "AuctionSettled",
      "type": "event"
    },
    {
      "anonymous": false,
      "inputs": [
        {
          "indexed": true,
          "internalType": "uint256",
          "name": "auctionId",
          "type": "uint256"
        },
        {
          "indexed": true,
          "internalType": "address",
          "name": "bidder",
          "type": "address"
        },
        {
          "indexed": false,
          "internalType": "uint256",
          "name": "amount",
          "type": "uint256"
        }
      ],
      "name": "BidPlaced",
      "type": "event"
    },
    {
      "anonymous": false,
      "inputs": [
        {
          "indexed": true,
          "internalType": "address",
          "name": "user",
          "type": "address"
        },
        {
          "indexed": false,
          "internalType": "uint256",
          "name": "amount",
          "type": "uint256"
        }
      ],
      "name": "Withdrawn",
      "type": "event"
    },
    {
      "inputs": [
        {
          "internalType": "uint256",
          "name": "",
          "type": "uint256"
        }
      ],
      "name": "auctions",
      "outputs": [
        {
          "internalType": "address payable",
          "name": "seller",
          "type": "address"
        },
        {
          "internalType": "string",
          "name": "ipfsCID",
          "type": "string"
        },
        {
          "internalType": "uint256",
          "name": "reservePrice",
          "type": "uint256"
        },
        {
          "internalType": "uint256",
          "name": "highestBid",
          "type": "uint256"
        },
        {
          "internalType": "address payable",
          "name": "highestBidder",
          "type": "address"
        },
        {
          "internalType": "uint256",
          "name": "startTime",
          "type": "uint256"
        },
        {
          "internalType": "uint256",
          "name": "endTime",
          "type": "uint256"
        },
        {
          "internalType": "bool",
          "name": "settled",
          "type": "bool"
        },
        {
          "internalType": "bool",
          "name": "canceled",
          "type": "bool"
        }
      ],
      "stateMutability": "view",
      "type": "function"
    },
    {
      "inputs": [
        {
          "internalType": "uint256",
          "name": "_auctionId",
          "type": "uint256"
        }
      ],
      "name": "cancelAuction",
      "outputs": [],
      "stateMutability": "nonpayable",
      "type": "function"
    },
    {
      "inputs": [
        {
          "internalType": "string",
          "name": "_ipfsCID",
          "type": "string"
        },
        {
          "internalType": "uint256",
          "name": "_reservePrice",
          "type": "uint256"
        },
        {
          "internalType": "uint256",
          "name": "_biddingTime",
          "type": "uint256"
        }
      ],
      "name": "createAuction",
      "outputs": [
        {
          "internalType": "uint256",
          "name": "",
          "type": "uint256"
        }
      ],
      "stateMutability": "nonpayable",
      "type": "function"
    },
    {
      "inputs": [
        {
          "internalType": "uint256",
          "name": "_auctionId",
          "type": "uint256"
        }
      ],
      "name": "getAuction",
      "outputs": [
        {
          "internalType": "address",
          "name": "seller",
          "type": "address"
        },
        {
          "internalType": "string",
          "name": "ipfsCID",
          "type": "string"
        },
        {
          "internalType": "uint256",
          "name": "reservePrice",
          "type": "uint256"
        },
        {
          "internalType": "uint256",
          "name": "highestBid",
          "type": "uint256"
        },
        {
          "internalType": "address",
          "name": "highestBidder",
          "type": "address"
        },
        {
          "internalType": "uint256",
          "name": "startTime",
          "type": "uint256"
        },
        {
          "internalType": "uint256",
          "name": "endTime",
          "type": "uint256"
        },
        {
          "internalType": "bool",
          "name": "settled",
          "type": "bool"
        },
        {
          "internalType": "bool",
          "name": "canceled",
          "type": "bool"
        }
      ],
      "stateMutability": "view",
      "type": "function"
    },
    {
      "inputs": [],
      "name": "nextAuctionId",
      "outputs": [
        {
          "internalType": "uint256",
          "name": "",
          "type": "uint256"
        }
      ],
      "stateMutability": "view",
      "type": "function"
    },
    {
      "inputs": [],
      "name": "owner",
      "outputs": [
        {
          "internalType": "address",
          "name": "",
          "type": "address"
        }
      ],
      "stateMutability": "view",
      "type": "function"
    },
    {
      "inputs": [
        {
          "internalType": "address",
          "name": "",
          "type": "address"
        }
      ],
      "name": "pendingReturns",
      "outputs": [
        {
          "internalType": "uint256",
          "name": "",
          "type": "uint256"
        }
      ],
      "stateMutability": "view",
      "type": "function"
    },
    {
      "inputs": [
        {
          "internalType": "uint256",
          "name": "_auctionId",
          "type": "uint256"
        }
      ],
      "name": "placeBid",
      "outputs": [],
      "stateMutability": "payable",
      "type": "function"
    },
    {
      "inputs": [],
      "name": "platformFeeBasisPoints",
      "outputs": [
        {
          "internalType": "uint256",
          "name": "",
          "type": "uint256"
        }
      ],
      "stateMutability": "view",
      "type": "function"
    },
    {
      "inputs": [
        {
          "internalType": "uint256",
          "name": "_bps",
          "type": "uint256"
        }
      ],
      "name": "setPlatformFee",
      "outputs": [],
      "stateMutability": "nonpayable",
      "type": "function"
    },
    {
      "inputs": [
        {
          "internalType": "uint256",
          "name": "_auctionId",
          "type": "uint256"
        }
      ],
      "name": "settleAuction",
      "outputs": [],
      "stateMutability": "nonpayable",
      "type": "function"
    },
    {
      "inputs": [
        {
          "internalType": "address",
          "name": "_newOwner",
          "type": "address"
        }
      ],
      "name": "transferOwnership",
      "outputs": [],
      "stateMutability": "nonpayable",
      "type": "function"
    },
    {
      "inputs": [],
      "name": "withdraw",
      "outputs": [],
      "stateMutability": "nonpayable",
      "type": "function"
    },
    {
      "stateMutability": "payable",
      "type": "receive"
    }
  ],
  "bytecode": "0x608060405260fa600155600160025534801561001a57600080fd5b50600080546001600160a01b031916331790556114338061003c6000396000f3fe6080604052600436106100c65760003560e01c806378bd79351161007f5780639979ef45116100595780639979ef4514610236578063c58bfb6614610249578063f2fde38b1461025f578063fc5284821461027f57600080fd5b806378bd7935146101be5780638da5cb5b146101de57806396b5a7551461021657600080fd5b806312e8e2c3146100d257806326b387bb146100f45780632dbddb41146101345780632e993611146101545780633ccfd60b14610174578063571a26a01461018957600080fd5b366100cd57005b600080fd5b3480156100de57600080fd5b506100f26100ed366004611020565b610295565b005b34801561010057600080fd5b5061012161010f366004611039565b60046020526000908152604090205481565b6040519081526020015b60405180910390f35b34801561014057600080fd5b5061012161014f366004611069565b610327565b34801561016057600080fd5b506100f261016f366004611020565b610568565b34801561018057600080fd5b506100f26108ad565b34801561019557600080fd5b506101a96101a4366004611020565b6109d3565b60405161012b9998979695949392919061112e565b3480156101ca57600080fd5b506101a96101d9366004611020565b610abf565b3480156101ea57600080fd5b506000546101fe906001600160a01b031681565b6040516001600160a01b03909116815260200161012b565b34801561022257600080fd5b506100f2610231366004611020565b610c03565b6100f2610244366004611020565b610d6f565b34801561025557600080fd5b5061012160015481565b34801561026b57600080fd5b506100f261027a366004611039565b610f73565b34801561028b57600080fd5b5061012160025481565b6000546001600160a01b031633146102e05760405162461bcd60e51b81526020600482015260096024820152682737ba1037bbb732b960b91b60448201526064015b60405180910390fd5b6103e88111156103225760405162461bcd60e51b815260206004820152600d60248201526c46656520746f6f206c6172676560981b60448201526064016102d7565b600155565b60008361036a5760405162461bcd60e51b815260206004820152601160248201527012541194c810d251081c995c5d5a5c9959607a1b60448201526064016102d7565b603c8210156103b45760405162461bcd60e51b8152602060048201526016602482015275109a59191a5b99c81d1a5b59481d1bdbc81cda1bdc9d60521b60448201526064016102d7565b60028054600091826103c5836111a9565b919050559050604051806101200160405280336001600160a01b0316815260200187878080601f016020809104026020016040519081016040528093929190818152602001838380828437600092018290525093855250505060208201879052604082018190526060820152426080820181905260a09091019061044a9086906111c2565b815260006020808301829052604092830182905284825260038152919020825181546001600160a01b0319166001600160a01b03909116178155908201516001820190610497908261127a565b50604082015160028201556060820151600382015560808201516004820180546001600160a01b0319166001600160a01b0390921691909117905560a0820151600582015560c0820151600682015560e0820151600790910180546101009384015161ffff1990911692151561ff0019169290921791151590920217905533817fd0d08457c17900d13f32c385b163851a08861cabc596e79a91258a18a526d6fd888888426105468a826111c2565b60405161055795949392919061133a565b60405180910390a395945050505050565b8060008111801561057a575060025481105b6105965760405162461bcd60e51b81526004016102d790611381565b60008281526003602052604090206007810154610100900460ff16156105f15760405162461bcd60e51b815260206004820152601060248201526f105d58dd1a5bdb8818d85b98d95b195960821b60448201526064016102d7565b600781015460ff16156106385760405162461bcd60e51b815260206004820152600f60248201526e105b1c9958591e481cd95d1d1b1959608a1b60448201526064016102d7565b80600601544210156106845760405162461bcd60e51b8152602060048201526015602482015274105d58dd1a5bdb881b9bdd081e595d08195b991959605a1b60448201526064016102d7565b8060020154816003015410156106ce5760405162461bcd60e51b815260206004820152600f60248201526e14995cd95c9d99481b9bdd081b595d608a1b60448201526064016102d7565b60078101805460ff19166001908117909155546003820154600091612710916106f791906113b1565b61070191906113c8565b9050600081836003015461071591906113ea565b905081156107b857600080546040516001600160a01b039091169084908381818185875af1925050503d806000811461076a576040519150601f19603f3d011682016040523d82523d6000602084013e61076f565b606091505b50509050806107b65760405162461bcd60e51b8152602060048201526013602482015272119959481d1c985b9cd9995c8819985a5b1959606a1b60448201526064016102d7565b505b82546040516000916001600160a01b03169083908381818185875af1925050503d8060008114610804576040519150601f19603f3d011682016040523d82523d6000602084013e610809565b606091505b505090508061085a5760405162461bcd60e51b815260206004820152601760248201527f5061796f757420746f2073656c6c6572206661696c656400000000000000000060448201526064016102d7565b600484015460038501546040519081526001600160a01b039091169087907fc9f72b276a388619c6d185d146697036241880c36654b1a3ffdad07c24038d999060200160405180910390a3505050505050565b33600090815260046020526040902054806109015760405162461bcd60e51b81526020600482015260146024820152734e6f2066756e647320746f20776974686472617760601b60448201526064016102d7565b336000818152600460205260408082208290555190919083908381818185875af1925050503d8060008114610952576040519150601f19603f3d011682016040523d82523d6000602084013e610957565b606091505b505090508061099a5760405162461bcd60e51b815260206004820152600f60248201526e15da5d1a191c985dc819985a5b1959608a1b60448201526064016102d7565b60405182815233907f7084f5476618d8e60b11ef0d7d3f06914655adb8793e28ff7f018d4c76d505d59060200160405180910390a25050565b600360205260009081526040902080546001820180546001600160a01b0390921692916109ff906111f1565b80601f0160208091040260200160405190810160405280929190818152602001828054610a2b906111f1565b8015610a785780601f10610a4d57610100808354040283529160200191610a78565b820191906000526020600020905b815481529060010190602001808311610a5b57829003601f168201915b50505060028401546003850154600486015460058701546006880154600790980154969793969295506001600160a01b039091169350919060ff8082169161010090041689565b60006060600080600080600080600089600081118015610ae0575060025481105b610afc5760405162461bcd60e51b81526004016102d790611381565b60008b81526003602081905260409091208054600282015492820154600483015460058401546006850154600786015460018701805497986001600160a01b039788169891979096951693929160ff8082169261010090920416908890610b62906111f1565b80601f0160208091040260200160405190810160405280929190818152602001828054610b8e906111f1565b8015610bdb5780601f10610bb057610100808354040283529160200191610bdb565b820191906000526020600020905b815481529060010190602001808311610bbe57829003601f168201915b505050505097509a509a509a509a509a509a509a509a509a5050509193959799909294969850565b80600081118015610c15575060025481105b610c315760405162461bcd60e51b81526004016102d790611381565b60008281526003602052604090205482906001600160a01b03163314610c865760405162461bcd60e51b815260206004820152600a6024820152692737ba1039b2b63632b960b11b60448201526064016102d7565b6000838152600360205260409020600781015460ff1615610cdb5760405162461bcd60e51b815260206004820152600f60248201526e105b1c9958591e481cd95d1d1b1959608a1b60448201526064016102d7565b600381015415610d2d5760405162461bcd60e51b815260206004820152601e60248201527f43616e6e6f742063616e63656c2077697468206163746976652062696473000060448201526064016102d7565b60078101805461ff00191661010017905560405184907f28601d865dccc9f113e15a7185c1b38c085d598c71250d3337916a428536d77190600090a250505050565b80600081118015610d81575060025481105b610d9d5760405162461bcd60e51b81526004016102d790611381565b60008281526003602052604090206007810154610100900460ff1615610df85760405162461bcd60e51b815260206004820152601060248201526f105d58dd1a5bdb8818d85b98d95b195960821b60448201526064016102d7565b8060050154421015610e425760405162461bcd60e51b8152602060048201526013602482015272105d58dd1a5bdb881b9bdd081cdd185c9d1959606a1b60448201526064016102d7565b80600601544210610e855760405162461bcd60e51b815260206004820152600d60248201526c105d58dd1a5bdb88195b991959609a1b60448201526064016102d7565b80600301543411610ecd5760405162461bcd60e51b8152602060048201526012602482015271109a59080f0f481a1a59da195cdd08189a5960721b60448201526064016102d7565b60048101546001600160a01b031615610f195760038101546004808301546001600160a01b03166000908152602091909152604081208054909190610f139084906111c2565b90915550505b34600382018190556004820180546001600160a01b031916339081179091556040519182529084907f0e54eff26401bf69b81b26f60bd85ef47f5d85275c1d268d84f68d6897431c479060200160405180910390a3505050565b6000546001600160a01b03163314610fb95760405162461bcd60e51b81526020600482015260096024820152682737ba1037bbb732b960b91b60448201526064016102d7565b6001600160a01b038116610ffe5760405162461bcd60e51b815260206004820152600c60248201526b5a65726f206164647265737360a01b60448201526064016102d7565b600080546001600160a01b0319166001600160a01b0392909216919091179055565b60006020828403121561103257600080fd5b5035919050565b60006020828403121561104b57600080fd5b81356001600160a01b038116811461106257600080fd5b9392505050565b6000806000806060858703121561107f57600080fd5b843567ffffffffffffffff8082111561109757600080fd5b818701915087601f8301126110ab57600080fd5b8135818111156110ba57600080fd5b8860208285010111156110cc57600080fd5b6020928301999098509187013596604001359550909350505050565b6000815180845260005b8181101561110e576020818501810151868301820152016110f2565b506000602082860101526020601f19601f83011685010191505092915050565b6001600160a01b038a81168252610120602083018190526000916111548483018d6110e8565b604085019b909b526060840199909952505094909516608085015260a084019290925260c0830152151560e08201529015156101009091015292915050565b634e487b7160e01b600052601160045260246000fd5b6000600182016111bb576111bb611193565b5060010190565b808201808211156111d5576111d5611193565b92915050565b634e487b7160e01b600052604160045260246000fd5b600181811c9082168061120557607f821691505b60208210810361122557634e487b7160e01b600052602260045260246000fd5b50919050565b601f82111561127557600081815260208120601f850160051c810160208610156112525750805b601f850160051c820191505b818110156112715782815560010161125e565b5050505b505050565b815167ffffffffffffffff811115611294576112946111db565b6112a8816112a284546111f1565b8461122b565b602080601f8311600181146112dd57600084156112c55750858301515b600019600386901b1c1916600185901b178555611271565b600085815260208120601f198616915b8281101561130c578886015182559484019460019091019084016112ed565b508582101561132a5787850151600019600388901b60f8161c191681555b5050505050600190811b01905550565b60808152846080820152848660a0830137600060a08683010152600060a0601f19601f88011683010190508460208301528360408301528260608301529695505050505050565b602080825260169082015275105d58dd1a5bdb88191bd95cc81b9bdd08195e1a5cdd60521b604082015260600190565b80820281158282048414176111d5576111d5611193565b6000826113e557634e487b7160e01b600052601260045260246000fd5b500490565b818103818111156111d5576111d561119356fea2646970667358221220f9cc7dc8cc4c51f3d1e6893177dd68a968edb2232e71f33ff250970f3ef1d28b64736f6c63430008120033",
  "linkReferences": {},
  "deployedLinkReferences": {}
}